:10000000020F79BB010689828A83E0225002E7222F
:10001000BBFE02E32289828A83E49322BB010CE5C2
:100020008229F582E5833AF583E0225006E92582AC
:10003000F8E622BBFE06E92582F8E222E58229F5F0
:1000400082E5833AF583E49322BB010689828A83A1
:10005000F0225002F722BBFE01F322F8BB010DE5AE
:100060008229F582E5833AF583E8F0225006E925F6
:1000700082C8F622BBFE05E92582C8F222EF8DF088
:10008000A4A8F0CF8CF0A428CE8DF0A42EFE22C51B
:10009000F0F8A3E028F0C5F0F8E5821582700215AB
:1000A00083E038F022A3F8E0C5F025F0F0E58215F2
:1000B0008270021583E0C838F0E822BB010A898209
:1000C0008A83F0E5F0A3F0225006F709A7F0192281
:1000D000BBFE06F3E5F009F31922EF2BFFEE3AFE23
:1000E000ED39FDEC38FC22C3EF9BFFEE9AFEED9953
:1000F000FDEC98FC22E88FF0A4CC8BF0A42CFCE95A
:100100008EF0A42CFC8AF0EDA42CFCEA8EF0A4CD99
:10011000A8F08BF0A42DCC3825F0FDE98FF0A42CAD
:10012000CD35F0FCEB8EF0A4FEA9F0EB8FF0A4CF60
:10013000C5F02ECD39FEE43CFCEAA42DCE35F0FD11
:10014000E43CFC2275F008758200EF2FFFEE33FED1
:10015000CD33CDCC33CCC58233C5829BED9AEC999F
:10016000E58298400CF582EE9BFEED9AFDEC99FC41
:100170000FD5F0D6E4CEFBE4CDFAE4CCF9A8822288
:10018000B800C1B90059BA002DEC8BF084CFCECDA8
:10019000FCE5F0CBF97818EF2FFFEE33FEED33FDE1
:1001A000EC33FCEB33FB10D703994004EB99FB0FC6
:1001B000D8E5E4F9FA227818EF2FFFEE33FEED339D
:1001C000FDEC33FCC933C910D7059BE99A4007EC15
:1001D0009BFCE99AF90FD8E0E4C9FAE4CCFB22755C
:1001E000F010EF2FFFEE33FEED33FDCC33CCC833F0
:1001F000C810D7079BEC9AE899400AED9BFDEC9A52
:10020000FCE899F80FD5F0DAE4CDFBE4CCFAE4C8C9
:10021000F922C3E49FFFE49EFEE49DFDE49CFC22E2
:10022000EB9FF5F0EA9E42F0E99D42F0EC6480C855
:1002300064809845F022EB9FF5F0EA9E42F0E99D3C
:1002400042F0E89C45F022E8600FECC313FCED138C
:10025000FDEE13FEEF13FFD8F122E8600FEFC3337A
:10026000FFEE33FEED33FDEC33FCD8F122BB01078A
:1002700089828A830202CF5005E9F802043FBBFE5F
:1002800005E9F802044B22E0FCA3E0FDA3E0FEA395
:10029000E0FF22E0F8A3E0F9A3E0FAA3E0FB22BB31
:1002A000010DE58229F582E5833AF5830202935038
:1002B00007E92582F8020415BBFE07E92582F8024A
:1002C0000422E58229F582E5833AF58302042FECC6
:1002D000F0A3EDF0A3EEF0A3EFF022A8828583F067
:1002E000D083D0821202F21202F21202F21202F251
:1002F000E473E493A3C583C5F0C583C8C582C8F081
:10030000A3C583C5F0C583C8C582C822A42582F5CC
:1003100082E5F03583F58322E0FBA3E0FAA3E0F960
:1003200022F8E0FBA3A3E0F925F0F0E58215827046
:10033000021583E0FA38F022EBF0A3EAF0A3E9F02B
:1003400022E493FB740193FA740293F922BB010730
:1003500089828A830203185005E9F8020457BBFE1C
:1003600005E9F802046989828A83020341BB011A04
:1003700089828A83D0F0D0E0F8D0E0F9D0E0FAD0DA
:10038000E0FBE8C0E0C0F00203385016E9F8D08383
:10039000D082D0E0F9D0E0FAD0E0FBC082C0830286
:1003A0000460BBFE16E9F8D083D082D0E0F9D0E03B
:1003B000FAD0E0FBC082C08302047222D083D082D4
:1003C000F8E4937012740193700DA3A393F8740171
:1003D00093F5828883E4737402936860EFA3A3A308
:1003E00080DF8A838982E473EC8EF0A4CCC5F0CCE4
:1003F000CDF8EFA4CEC5F02DFDE43CFCE8A42EC85A
:10040000C5F03DFDE43CFCEFA4FFE5F028FEE43D33
:10041000FDE43CFC22E6FB08E6F908E6FA08E6CB38
:10042000F822E2FB08E2F908E2FA08E2CBF822E45B
:1004300093F8740193F9740293FA740393FB22EC1A
:10044000F608EDF608EEF608EFF622ECF208EDF20B
:1004500008EEF208EFF222E6FB08E6FA08E6F922D7
:10046000EBF608EAF608E9F622E2FB08E2FA08E20F
:10047000F922EBF208EAF208E9F222C2AF90007D1D
:10048000E0FF9001D9EFF0D2AF90007EE0FF900145
:10049000D9E0FEEE6F700302061990007EE0FF9037
:1004A00001D9E0FEEED39F401090007EE0FF900166
:1004B000D9E0FEC3EE9FFF801290007EE0FFC37480
:1004C000FF9FFF9001D9E0FEEF2EFF9001DAEFF0E1
:1004D0009001D9E0FF90007EEFF09001DAE0FF7E1E
:1004E000009000BFEE8FF012008F9000BFE0FEA3DF
:1004F000E0FFC3EF94E8EE940340229000BF74FC49
:1005000075F01812008F90007F1202877B017A002D
:10051000790078001200DA90007F1202CF9001D8A3
:10052000E4F09001D8E0FF7E00C3EF940AEE64800F
:10053000948040030206199001D8E0FFEF75F006A1
:10054000A42483F582E43400F583120287EC4D4E37
:100550004F70030206109001DAE0FFE4FCFDFE900C
:1005600001D8E0FBEB75F006A42483F582E43400A7
:10057000F583120293C312023640269001DAE0FF9F
:10058000AB07E4FAF9F89001D8E0FFEF75F006A4A4
:100590002483F582E43400F5831202871200E78099
:1005A000087F007E007D007C009001D8E0FBEB75A9
:1005B000F006A42483F582E43400F5831202CF9080
:1005C00001D8E0FFEF75F006A42483F582E434003F
:1005D000F5831202877B007A0079007800C312024B
:1005E00036702D9001D8E0FFEF75F006A42487F552
:1005F00082E43400F583E0FF9001D8E0FEEE75F070
:1006000006A42488F582E43400F583E0FD120D622F
:100610009001D8E004F0020522229001F4EFF0905E
:1006200001F5EDF09001F4E0FF9001F4EFF090019E
:10063000F5E0FFEF1203BC064100072701000007A9
:100640003590016EE0FEA3E0FFEF4E603490016E46
:10065000E0FEA3E0FF7C007D031203E8A804A905E7
:10066000AA06AB079001E1E0FEA3E0FFE4FCFD1267
:1006700000DA780212024790016EEEF0A3EFF080EC
:10068000109001E1E0FEA3E0FF90016EEEF0A3EF19
:10069000F0900174E0FF7E00C3EF9405EE64809457
:1006A000805007900174E004F022900172E0FEA3F4
:1006B000E0FF90016EE0FCA3E0FDD3ED9FEC9E40D7
:1006C0001090016EE0FEA3E0FF900172EEF0A3EF48
:1006D000F0900170E0FEA3E0FF90016EE0FCA3E06B
:1006E000FDC3ED9FEC9E501090016EE0FEA3E0FF75
:1006F000900170EEF0A3EFF090016EE0FEA3E0FF3A
:10070000C3EF94E8EE9403401190016EE0FEA3E085
:10071000FFD3EF94FCEE9408401E1210B81210C2E2
:100720009001E37402F02290016EE4F0A3E4F090F3
:100730000174E4F0221210C8229000DA12033890FB
:1007400000DDEDF09000E41202DB000000009000FC
:10075000E3E4F09000E17401F09000DDE0FFEF14BD
:10076000FF9000E1E0FEEEC39F40030208189000F6
:10077000E81202DB000000009000E1E0FFEF14FF50
:100780009000E2EFF09000E1E0FF7E00EF2401FF37
:10079000EE3400FE9000E2E0FD7C00D3ED9FEE64BD
:1007A00080F8EC648098503F9000E8120287C00403
:1007B000C005C006C0079000DA1203189000E2E0FE
:1007C000FF75F004EFA4F58285F08312029FD00735
:1007D000D006D005D0041200DA9000E81202CF90C3
:1007E00000E2E004F0809E9000E41202879000E8AE
:1007F000120293C312023640169000E8120287904C
:1008000000E41202CF9000E1E0FF9000E3EFF090EF
:1008100000E1E004F00207599000DE120318EA49F3
:100820004B601A7B037A00790078009000E4120292
:10083000871201809000DE12031812026D9000E30F
:10084000E0FF221210B0900167EFF0900167E0FF27
:10085000EF240AFF900168EFF0900168E0FFEF25B8
:10086000E025E02400F582E43400F583C083C082F3
:100870001202939001E1E0FEA3E0FFE4FCFD120010
:10088000DAD082D0831202CF90007CE004F0900096
:100890007CE0FF7E00EF64324E6003020945900069
:1008A0007CE4F0900167E0FFEF3395E0FEC3EF9446
:1008B00014EE64809480500F900167E004F0900182
:1008C00067E0FF120CCD227B017A007900C003C0E3
:1008D00002C0017B017A01796A9000DE120338D0F0
:1008E00001D002D0037D1F120739900169EFF07F1C
:1008F000487EE87D017C0090016A120293C31202D7
:100900003650397FF87E247D017C0090016A120206
:1009100093D31202364025900169E0FFEF24EDFFEA
:10092000900167EFF0900167E0FF120CCD7F051298
:100930000DF21210BF9001E37401F0221210B89072
:1009400001E37402F02212047B9001CEE4F09001E6
:10095000CEE0FF7E00C3EF9405EE6480948050E605
:10096000C2AF9001CEE0FF74AE2FF582E43401F502
:1009700083E0FF9001CCEFF0D2AF9001CCE0FFEF2D
:100980007003020A3B9001CDE4F09001CDE0FF7EC0
:1009900000C3EF9408EE64809480502F9001CDE066
:1009A000FF7E007401A807088005C333CE33CED87C
:1009B000F9FF9001CCE0FD7C00EE5CFEEF5DFFEF07
:1009C0004E70089001CDE004F080BF9001CDE0FFB3
:1009D000A8077401088002C333D8FCFF9001CCEF54
:1009E000F09001CCE0FFEFF4FF9001CCEFF0C2AF4C
:1009F0009001CEE0FF74AE2FF582E43401F583C0A0
:100A000083C082E0FF9001CCE0FEEF5EFFD082D099
:100A100083EFF0D2AF9001CEE0FF9001CDE0FD90EA
:100A200001CEE0FE75F003EE9010CF12030C12031E
:100A30004189828A831203E60209469001CEE004CE
:100A4000F002094E020946227F08120BD290015390
:100A5000EEF0A3EFF07F05120BD2900151EEF0A360
:100A6000EFF0121080E4FCFD9001551202CF9001CE
:100A700055120293900151E0FEA3E0FFE4FCFD1249
:100A800000F59001551202CF9001551202877B03A9
:100A90007A00790078001200F59001551202CF908B
:100AA000015512028778021202479001551202CFB7
:100AB000900155120287C004C005C006C00790010E
:100AC00053E0FEA3E0FFAB07AA06E4F9F8D007D095
:100AD00006D005D0041201809001551202CF7FFF8D
:100AE0007EFF7D007C00900155120293D3120236E6
:100AF00040057EFF7FFF229001551202872275C7B5
:100B0000AA75C755439F0175A60C75A70075AF045C
:100B100075C7AA75C75543A4019001E4E5AEF07509
:100B2000A60D75A70075AF0475C7AA75C75543A470
:100B3000019001E5E5AEF09001E5E0FFEF540FFF15
:100B40009001E5EFF075C7AA75C755539FFE900158
:100B5000E4E0FF7E00EF75F010A4FFAEF09001E539
:100B6000E0FD7C00EE4CFEEF4DFF9001E6EEF0A3C1
:100B7000EFF02275C7AA75C755439F0175A630755A
:100B8000A70075AF0475C7AA75C75543A4019001A6
:100B9000E8E5AEF075A63175A70075C7AA75C7550B
:100BA00043A4019001E9E5AEF075C7AA75C7555396
:100BB0009FFE9001E8E0FF7E00EF25E0FFEE33FEB0
:100BC0009001E9E0FDED5401FD7C00EE4CFEEF4D9F
:100BD000FF229001F7EFF09001F7E0FFEF1203BC66
:100BE0000BE70500000BFE53E8F043E80543B110A6
:100BF00053B2EF75F60043F62043E101800C43E861
:100C00000853E8F843E101120FA5C2EFD2EE30EF2E
:100C1000FDAFC37E00EF75F010A4FFAEF0E5C25447
:100C20000FFD7C00EE4CFEEF4DFF229001E3E0FF54
:100C30007E00EF4E7012120A489001E1EEF0A3EF31
:100C4000F07D017F02120D629001E3E0FF7E00EF74
:100C500064014E7012120A489001E1EEF0A3EFF029
:100C60007D007F03120D629001E3E0FF7E00EF64E0
:100C7000024E70031210C57D077F04120D62229090
:100C800001EAEEF0A3EFF09001EAE0FEA3E0FFEE50
:100C90005401FE9001EAEEF0A3EFF09001EAE0FECD
:100CA000A3E0FFEEA2E713FEEF13FF8F089001EA27
:100CB000E0FEA3E0FFEF5401F50975C7AA75C7551B
:100CC00085088475C7AA75C755850985229001F9DD
:100CD000EFF09001F9E0FFEF3395E0FED3EF9414CD
:100CE000EE6480948040089001F97414F0801B90A9
:100CF00001F9E0FFEF3395E0FEC3EF94F6EE648078
:100D0000947F50069001F974F6F09001F9E0FF121B
:100D10000EE19001F9E0FF229001401203389001AA
:100D200043EDF090014012031890014612033890F1
:100D3000014474FF75F0FF1200A5AFF0FED3EF94ED
:100D400000EE94004015900143E0FF900146E475E9
:100D5000F001120321EF12004980D49001401203E8
:100D600018229001CFEFF09001D0EDF09001D0E08B
:100D7000FFA8077401088002C333D8FCFF9001D19B
:100D8000EFF0C2AF9001CFE0FF74AE2FF582E434F4
:100D900001F583C083C082E0FF9001D1E0FEEF4EF9
:100DA000FFD082D083EFF0D2AF229001F0EFF0902D
:100DB00001F1EDF09001F0E0FF9001F0EFF0900113
:100DC000F1E0FFEF1203BC0DDA010DE6020DE203C4
:100DD0000DDE040DEA0700000DEE12100B221210BA
:100DE000CE221210CD221210CC22120C2B22121065
:100DF000C8229001FAEFF09001FAE0FF7E00D3EFF5
:100E00009400EE6480948040129001FAE0FF7E002E
:100E1000C3EF9409EE6480948040031210BC75D433
:100E2000009001FAE0FFC374099FF5DCD2DE20DEFA
:100E3000FD22D29053B3FE43B401A2AF920075C716
:100E4000AA75C75575910143B40175C7AA75C755F1
:100E5000759100A20092AF53DF3FC2DFD2DC20DCED
:100E6000FD75D10075D90975D40075DC06D2DF2275
:100E70009001FBE4F09001FBE0FF7E00C3EF941FC4
:100E8000EE940050229001FBE0FFEF25E025E024E6
:100E900000F582E43400F5831202DB0000000090CC
:100EA00001FBE004F080CE90007CE4F022120B7392
:100EB0009001ECEEF0A3EFF09001ECE0FEA3E0FF78
:100EC000EF24E7FFEE34FFFE120C7F9001ECE0FE12
:100ED000A3E0FF9001C9EEF0A3EFF09001CBE4F0A6
:100EE000229001F8EFF09001C9E0FEA3E0FFEF24AB
:100EF000E7FFEE34FFFE9001F8E0FDED3395E0FCF6
:100F0000C3EF9DFFEE9CFE120C7F9001F8E0FF9076
:100F100001CBEFF0229001F2EFF09001F3EDF090B1
:100F200001F2E0FF9001F2EFF09001F3E0FFEF1229
:100F300003BC0F3C000F400100000F441210582268
:100F4000120843221210C8227B017A007983900193
:100F500044E4F0A3743CF07D00120D1890007F1261
:100F600002DB000000009000BFE4F0A3E4F090007A
:100F70007EE4F090007DE4F02275C7AA75C7557530
:100F8000FD5A75C7AA75C75575FDA5787FE4F6D8D3
:100F9000FD9000007FFF7E03E4F0A3DFFCDEFA7526
:100FA00081200210279001F6E4F09001F6E0FF7E28
:100FB00000C3EF9403EE64809480500FC2EFD2EE32
:100FC00030EFFD9001F6E004F080DF2290016EE446
:100FD000F0A3E4F0900174E4F0900172E4F0A3E473
:100FE000F090017074FFF0A374FFF0229001EEEF17
:100FF000F09001EFEDF09001EEE0FF9001EEEFF0E8
:101000009001EFE0FF80001210BC229001E3E4F0B9
:101010009001E1E4F0A3E4F07D007F02120D627D17
:10102000077F04120D6222C2AF1210A312106912C0
:101030000E70120FCC12109BD2AF120946E47E0044
:101040007F00227B017A0179AE900144E4F0A37421
:1010500005F07D00120D1822120E707FF6120CCDD5
:101060007F03120DF21210B422121076120E3212F9
:101070001089121092221210CB120EAD120AFE220B
:101080009001E6E0FEA3E0FF22C29553B3DF53B424
:10109000DF22D29353B3F753B4F7227D017F0412BA
:1010A0000D6222120F48121043229001CBE0FF2262
:1010B0001210AA2243DE042253DEFB2280FE22D23B
:1010C0009522C29522C2932280FE2222222222FF52
:0E10D0000FEC000000FF0F15FF061AFF0DAA1F
:00000001FF
