:1000000002160A9001FCE4F09001FCE0FF7E00C3C0
:10001000EF9403EE64809480500FC2EFD2EE30EF85
:10002000FD9001FCE004F080DF222202148FBB016E
:100030000689828A83E0225002E722BBFE02E32285
:1000400089828A83E49322BB010CE58229F582E54B
:10005000833AF583E0225006E92582F8E622BBFECA
:1000600006E92582F8E222E58229F582E5833AF560
:1000700083E49322BB010689828A83F0225002F72F
:1000800022BBFE01F322F8BB010DE58229F582E5D2
:10009000833AF583E8F0225006E92582C8F622BBB0
:1000A000FE05E92582C8F222EF8DF0A4A8F0CF8CDE
:1000B000F0A428CE8DF0A42EFE22C5F0F8A3E028EF
:1000C000F0C5F0F8E582158270021583E038F02261
:1000D000A3F8E0C5F025F0F0E582158270021583E3
:1000E000E0C838F0E822BB010A89828A83F0E5F093
:1000F000A3F0225006F709A7F01922BBFE06F3E58C
:10010000F009F31922EF2BFFEE3AFEED39FDEC3842
:10011000FC22C3EF9BFFEE9AFEED99FDEC98FC22CA
:10012000E88FF0A4CC8BF0A42CFCE98EF0A42CFC7E
:100130008AF0EDA42CFCEA8EF0A4CDA8F08BF0A4FC
:100140002DCC3825F0FDE98FF0A42CCD35F0FCEB5B
:100150008EF0A4FEA9F0EB8FF0A4CFC5F02ECD3920
:10016000FEE43CFCEAA42DCE35F0FDE43CFC227517
:10017000F008758200EF2FFFEE33FECD33CDCC3388
:10018000CCC58233C5829BED9AEC99E58298400CF0
:10019000F582EE9BFEED9AFDEC99FC0FD5F0D6E4CE
:1001A000CEFBE4CDFAE4CCF9A88222B800C1B900B4
:1001B00059BA002DEC8BF084CFCECDFCE5F0CBF915
:1001C0007818EF2FFFEE33FEED33FDEC33FCEB330D
:1001D000FB10D703994004EB99FB0FD8E5E4F9FA3B
:1001E000227818EF2FFFEE33FEED33FDEC33FCC920
:1001F00033C910D7059BE99A4007EC9BFCE99AF9B3
:100200000FD8E0E4C9FAE4CCFB2275F010EF2FFF21
:10021000EE33FEED33FDCC33CCC833C810D7079B8B
:10022000EC9AE899400AED9BFDEC9AFCE899F80FEE
:10023000D5F0DAE4CDFBE4CCFAE4C8F922C3E49FBC
:10024000FFE49EFEE49DFDE49CFC22EB9FF5F0EABA
:100250009E42F0E99D42F0EC6480C864809845F0CD
:1002600022EB9FF5F0EA9E42F0E99D42F0E89C45C2
:10027000F022E8600FECC313FCED13FDEE13FEEF6C
:1002800013FFD8F122E8600FEFC333FFEE33FEED2A
:1002900033FDEC33FCD8F122BB010DE58229F58258
:1002A000E5833AF5830202E25007E92582F8020469
:1002B00070BBFE07E92582F802047CE58229F582FD
:1002C000E5833AF583020488BB010789828A8302A9
:1002D000032A5005E9F80204C2BBFE05E9F802044E
:1002E000CE22E0FCA3E0FDA3E0FEA3E0FF22E0F8C5
:1002F000A3E0F9A3E0FAA3E0FB22BB010DE582290C
:10030000F582E5833AF5830202EE5007E92582F88B
:10031000020498BBFE07E92582F80204A5E58229BC
:10032000F582E5833AF5830204B2ECF0A3EDF0A385
:10033000EEF0A3EFF022A8828583F0D083D0821262
:10034000034D12034D12034D12034DE473E493A3C6
:10035000C583C5F0C583C8C582C8F0A3C583C5F0F1
:10036000C583C8C582C822A42582F582E5F03583FD
:10037000F58322E0FBA3E0FAA3E0F922F8E0FBA377
:10038000A3E0F925F0F0E582158270021583E0FA0A
:1003900038F022EBF0A3EAF0A3E9F022E493FB7437
:1003A0000193FA740293F922BB010789828A8302BE
:1003B00003735005E9F80204DABBFE05E9F802040C
:1003C000EC89828A8302039CBB011A89828A83D0CA
:1003D000F0D0E0F8D0E0F9D0E0FAD0E0FBE8C0E0FF
:1003E000C0F00203935016E9F8D083D082D0E0F930
:1003F000D0E0FAD0E0FBC082C0830204E3BBFE166B
:10040000E9F8D083D082D0E0F9D0E0FAD0E0FBC0A8
:1004100082C0830204F522D083D082F8E493701264
:10042000740193700DA3A393F8740193F5828883EC
:10043000E4737402936860EFA3A3A380DF8A8389C7
:1004400082E473EC8EF0A4CCC5F0CCCDF8EFA4CE52
:10045000C5F02DFDE43CFCE8A42EC8C5F03DFDE44C
:100460003CFCEFA4FFE5F028FEE43DFDE43CFC226B
:10047000E6FC08E6FD08E6FE08E6FF22E2FC08E2EC
:10048000FD08E2FE08E2FF22E493FC740193FD7490
:100490000293FE740393FF22E6FB08E6F908E6FAEE
:1004A00008E6CBF822E2FB08E2F908E2FA08E2CB20
:1004B000F822E493F8740193F9740293FA740393A5
:1004C000FB22ECF608EDF608EEF608EFF622ECF269
:1004D00008EDF208EEF208EFF222E6FB08E6FA0871
:1004E000E6F922EBF608EAF608E9F622E2FB08E272
:1004F000FA08E2F922EBF208EAF208E9F2229000A7
:10050000DA1203939000DDEDF09000E31203360061
:100510000000009000E2E4F09000DDE0FF7E00C308
:10052000EF9403EE6480948050030207D49000E1BE
:100530007401F09000DDE0FFEF14FF9000E1E0FEB9
:10054000EEC39F40030206469000E7120336000008
:1005500000009000E71202E2C004C005C006C00718
:100560009000E1E0FF7E00EF24FFFFEE34FFFEEF9E
:100570007802C333CE33CED8F9FF9000DA1203737A
:100580008F828E831202FAD007D006D005D00412D3
:1005900001059000E712032A9000E71202E2C0046E
:1005A000C005C006C0079000DA1203739000E1E0B6
:1005B000FF75F004EFA4F58285F0831202FAD007EC
:1005C000D006D005D0041201059000E712032A904E
:1005D00000E71202E2C004C005C006C0079000E1B7
:1005E000E0FF7E00EF2401FFEE3400FEEF7802C34F
:1005F00033CE33CED8F9FF9000DA1203738F828E98
:10060000831202FAD007D006D005D004120105905B
:1006100000E712032A9000E31202E29000E71202C0
:10062000EEC312026140169000E71202E29000E36E
:1006300012032A9000E1E0FF9000E2EFF09000E169
:10064000E004F00205339000E2E0FF7E00EF24FFBB
:10065000FFEE34FFFEEF7802C333CE33CED8F9FF7E
:100660009000DA1203738F828E83120298C004C046
:1006700005C006C0079000DA1203739000E2E0FFA5
:1006800075F004EFA4F58285F0831202FAD007D04A
:1006900006D005D004D3120261505E9000E2E0FF64
:1006A0007E00EF2401FFEE3400FEEF7802C333CE6C
:1006B00033CED8F9FF9000DA1203738F828E831243
:1006C0000298C004C005C006C0079000DA12037388
:1006D0009000E2E0FF75F004EFA4F58285F083124C
:1006E00002FAD007D006D005D004C3120261400937
:1006F0009000E2E014F00207A99000E2E0FF7E0023
:10070000EF24FFFFEE34FFFEEF7802C333CE33CE8B
:10071000D8F9FF9000DA1203738F828E8312029849
:10072000C004C005C006C0079000DA120373900031
:10073000E2E0FF75F004EFA4F58285F0831202FA7F
:10074000D007D006D005D004C3120261405B9000F0
:10075000E2E0FF7E00EF2401FFEE3400FEEF7802BE
:10076000C333CE33CED8F9FF9000DA1203738F82F1
:100770008E83120298C004C005C006C0079000DA3C
:100780001203739000E2E0FF75F004EFA4F5828598
:10079000F0831202FAD007D006D005D004D312029B
:1007A0006150069000E2E004F09000DE120373EA6C
:1007B000494B70030208567B037A00790078009059
:1007C00000E31202E21201AB9000DE120373120288
:1007D000C80208569000E1E4F09000DDE0FF9000D0
:1007E000E1E0FEEEC39F50549000DA1203739000D4
:1007F000E1E0FF75F004EFA4F58285F08312029822
:100800009000E31202EED312026150289000DA1237
:1008100003739000E1E0FF75F004EFA4F58285F02A
:10082000831202989000E312032A9000E1E0FF9007
:1008300000E2EFF09000E1E004F0809D9000DE1215
:100840000373EA494B600F9000E31202E29000DE6E
:100850001203731202C89000E2E0FF22C2AF9000C0
:100860007DE0FF9001E2EFF0D2AF90007EE0FF90DC
:1008700001E2E0FEEE6F70030209FA90007EE0FFF5
:100880009001E2E0FEEED39F401090007EE0FF90EA
:1008900001E2E0FEC3EE9FFF801290007EE0FFC306
:1008A00074FF9FFF9001E2E0FEEF2EFF9001E3EF67
:1008B000F09001E2E0FF90007EEFF09001E3E0FFB6
:1008C0007E009000BFEE8FF01200BA9000BFE0FEF5
:1008D000A3E0FFC3EF94E8EE940340229000BF74BE
:1008E000FC75F0181200BA90007F1202E27B017AC8
:1008F000007900780012010590007F12032A900110
:10090000E1E4F09001E1E0FF7E00C3EF940AEE64C1
:1009100080948040030209FA9001E1E0FFEF75F056
:1009200006A42483F582E43400F5831202E2EC4D40
:100930004E4F70030209F19001E3E0FFE4FCFDFE7D
:100940009001E1E0FBEB75F006A42483F582E4342A
:1009500000F5831202EEC312026140269001E3E02B
:10096000FFAB07E4FAF9F89001E1E0FFEF75F0065C
:10097000A42483F582E43400F5831202E21201120A
:1009800080087F007E007D007C009001E1E0FBEBB1
:1009900075F006A42483F582E43400F58312032A5B
:1009A0009001E1E0FFEF75F006A42483F582E434C2
:1009B00000F5831202E27B007A0079007800C3120E
:1009C0000261702D9001E1E0FFEF75F006A424872D
:1009D000F582E43400F583E0FF9001E1E0FEEE757E
:1009E000F006A42488F582E43400F583E0FD1213B8
:1009F000429001E1E004F0020903229001FAEFF0D5
:100A00009001FBEDF09001FAE0FF9001FAEFF09019
:100A100001FBE0FFEF1204170A22000B4E01000059
:100A20000B5C900173E0FF7E00C3EF9414EE6480D2
:100A30009480504F90016DE0FEA3E0FFEF4E602CDC
:100A400090016DE0FEA3E0FF7C007D0F120443A83F
:100A500004A905AA06AB079001C8E0FEA3E0FFE4E5
:100A6000FCFD120105780412027280089001C8E0B2
:100A7000FEA3E0FF90016DEEF0A3EFF0900173E0B4
:100A800004F02290016DE0FEA3E0FF7C007D0F12D8
:100A90000443A804A905AA06AB079001C8E0FEA379
:100AA000E0FFE4FCFD120105780412027290016D72
:100AB000EEF0A3EFF0900171E0FEA3E0FF90016D76
:100AC000E0FCA3E0FDD3ED9FEC9E401090016DE0B3
:100AD000FEA3E0FF900171EEF0A3EFF090016FE054
:100AE000FEA3E0FF90016DE0FCA3E0FDC3ED9FECF1
:100AF0009E501090016DE0FEA3E0FF90016FEEF0BC
:100B0000A3EFF090016DE0FEA3E0FFC3EF946EEE63
:100B10009400401190016DE0FEA3E0FFD3EF940E2E
:100B2000EE9401400E9001CB7401F07D057F04121C
:100B30001342229001CBE0FF7E00EF64024E601F63
:100B40009001CB7402F07D057F04121342229001C4
:100B50006DE4F0A3E4F0900173E4F02212174F2249
:100B6000900158EFF0900159EDF0900158E0FF7EB0
:100B700000C3EF9405EE648094805003D38001C3DA
:100B80004003121636900159E0FF7E00C3EF94082F
:100B9000EE648094805003D38001C3400312163664
:100BA0007F007E007D007C0090015A1202EEC3128D
:100BB00002616003D38001C34003121636900158CE
:100BC000E0FF900159E0FD120F6D90015EEFF09093
:100BD000015EE0FF7E00EF640A4E601D90015A1234
:100BE00002E290015EE0FBEB75F006A42483F5823F
:100BF000E43400F58312032A2290015EE4F09001B0
:100C00005EE0FF7E00C3EF940AEE648094804003B0
:100C1000020C9290015EE0FFEF75F006A42483F5CC
:100C200082E43400F5831202E27B007A00790078D6
:100C300000C3120261705290015A1202E290015EEA
:100C4000E0FBEB75F006A42483F582E43400F58321
:100C500012032A900158E0FF90015EE0FEEE75F06D
:100C600006A42487F582E43400F583EFF09001595F
:100C7000E0FF90015EE0FEEE75F006A42488F582A8
:100C8000E43400F583EFF0800990015EE004F002A7
:100C90000BFE90015EE0FF7E00EF640A4E6003D31E
:100CA0008001C340031216362212173A900166EFF4
:100CB000F0900166E0FFEF240AFF900167EFF090EB
:100CC0000167E0FFEF25E025E02400F582E4340031
:100CD000F583C083C0821202EE9001C8E0FEA3E05B
:100CE000FFE4FCFD120105D082D08312032A90009C
:100CF0007CE004F090007CE0FF7E00EF64964E60A4
:100D000003020DB490007CE4F0900166E0FFEF3345
:100D100095E0FEC3EF9414EE64809480500F900130
:100D200066E004F0900166E0FF121259227B017A1E
:100D3000007900C003C002C0017B017A017969908B
:100D400000DE120393D001D002D0037D1F1204FEF7
:100D5000900168EFF07FC87EAF7D007C0090016954
:100D60001202EEC3120261503E7F987E3A7D007CF3
:100D7000009001691202EED3120261402A900168CC
:100D8000E0FFEF24F6FF900166EFF0900166E0FFD0
:100D90001212599001CA7401F09001CB7402F07DD7
:100DA000057F04121342229001CB7401F07D057F70
:100DB000041213422212085C9001D7E4F09001D78C
:100DC000E0FF7E00C3EF9405EE6480948050E6C29D
:100DD000AF9001D7E0FF74B32FF582E43401F583BF
:100DE000E0FF9001D5EFF0D2AF9001D5E0FFEF70BA
:100DF00003020EAA9001D6E4F09001D6E0FF7E0037
:100E0000C3EF9408EE64809480502F9001D6E0FFE9
:100E10007E007401A807088005C333CE33CED8F90D
:100E2000FF9001D5E0FD7C00EE5CFEEF5DFFEF4E34
:100E300070089001D6E004F080BF9001D6E0FFA8D2
:100E4000077401088002C333D8FCFF9001D5EFF08E
:100E50009001D5E0FFEFF4FF9001D5EFF0C2AF9025
:100E600001D7E0FF74B32FF582E43401F583C0832A
:100E7000C082E0FF9001D5E0FEEF5EFFD082D0831C
:100E8000EFF0D2AF9001D7E0FF9001D6E0FD9001E6
:100E9000D7E0FE75F003EE90175512036712039C1E
:100EA00089828A83120441020DB59001D7E004F0D3
:100EB000020DBD020DB5227F081211AA900152EE5B
:100EC000F0A3EFF07F051211AA900150EEF0A3EF0E
:100ED000F012170EE4FCFD90015412032A90015405
:100EE0001202EE900150E0FEA3E0FFE4FCFD1201CF
:100EF0002090015412032A9001541202E27B037ADB
:100F0000007900780012012090015412032A900108
:100F1000541202E2780212027290015412032A90D3
:100F200001541202E2C004C005C006C0079001527D
:100F3000E0FEA3E0FFAB07AA06E4F9F8D007D0066D
:100F4000D005D0041201AB90015412032A7FFF7E1A
:100F5000FF7D007C009001541202EED3120261402A
:100F6000057EFF7FFF229001541202E2229001DEF3
:100F7000EFF09001DFEDF09001E0E4F09001E0E0AF
:100F8000FF7E00C3EF940AEE648094805068900165
:100F9000E0E0FFEF75F006A42483F582E43400F569
:100FA000831202E27B007A0079007800C3120261AA
:100FB000503C9001E0E0FFEF75F006A42487F58235
:100FC000E43400F583E0FF9001DEE0FEEFB5061E9D
:100FD0009001E0E0FFEF75F006A42488F582E43488
:100FE00000F583E0FF9001DFE0FEEF6E6008900106
:100FF000E0E004F080869001E0E0FF2212172EEF7F
:101000003395E0FEFDFC7B407A9C7900780012016C
:1010100020EF2440FFEE3466FEED3403FDEC340196
:10102000FC90019412032A7BE87A037900780090FF
:1010300001941202E212138AC3E49FFFE49EFE9021
:101040000192EEF0A3EFF053C98F53C8FE43C9805D
:1010500043C908900192E0FEA3E0FFEF54FFF5CAF8
:10106000900192E0FEA3E0FFEEFF7E008FCB75CCF7
:101070000075CD00439B80D2CA2275C7AA75C7559B
:10108000439F0175A60C75A70075AF0475C7AA75B7
:10109000C75543A4019001EAE5AEF075A60D75A70A
:1010A0000075AF0475C7AA75C75543A4019001EB3D
:1010B000E5AEF09001EBE0FFEF540FFF9001EBEF96
:1010C000F075C7AA75C755539FFE9001EAE0FF7EF1
:1010D00000EF75F010A4FFAEF09001EBE0FD7C0096
:1010E000EE4CFEEF4DFF9001ECEEF0A3EFF0227519
:1010F000C7AA75C755439F0175A63075A70075AF80
:101100000475C7AA75C75543A4019001EEE5AEF07A
:1011100075A63175A70075C7AA75C75543A4019078
:1011200001EFE5AEF075C7AA75C755539FFE900154
:10113000EEE0FF7E00EF25E0FFEE33FE9001EFE0F2
:10114000FDED5401FD7C00EE4CFEEF4DFF229001C1
:10115000CBE0FFEF12041711640011680111A60221
:10116000000011A912173E221217491217429001CE
:10117000CAE0FF7E00EF4E70077D007F021213422F
:101180009001CAE0FF7E00EF64014E70077D017F91
:101190000312134290015A120336000013887D0691
:1011A0007F04120B602212174C229001FDEFF09089
:1011B00001FDE0FFEF12041711BF05000011D65327
:1011C000E8F043E80543B11053B2EF75F60043F67B
:1011D0002043E101800C43E80853E8F843E10112A1
:1011E0000003C2EFD2EE30EFFDAFC37E00EF75F02B
:1011F00010A4FFAEF0E5C2540FFD7C00EE4CFEEFF4
:101200004DFF229001F6EFF09001F7EDF09001F61E
:10121000E0FF9001F6EFF09001F7E0FFEF12041706
:10122000123901124502124103123D0412490512FE
:101230004D061251070000125512150922121754BB
:1012400022121753221217522212114E221216F78F
:10125000221213CE2212174F229001FFEFF09001BD
:10126000FFE0FFEF3395E0FED3EF9414EE6480943B
:101270008040089001FF7414F0801B9001FFE0FF94
:10128000EF3395E0FEC3EF94F6EE6480947F500652
:101290009001FF74F6F01217349001FFE0FF121571
:1012A00072120FFC9001FFE0FF229001F0EEF0A31C
:1012B000EFF09001F0E0FEA3E0FFEE5401FE90019C
:1012C000F0EEF0A3EFF09001F0E0FEA3E0FFEEA25D
:1012D000E713FEEF13FF8F089001F0E0FEA3E0FF9D
:1012E000EF5401F50975C7AA75C75585088475C7F8
:1012F000AA75C7558509852290013F120393900175
:1013000042EDF090013F1203739001451203939058
:10131000014374FF75F0FF1200D0AFF0FED3EF94DD
:1013200000EE94004015900142E0FF900145E47505
:10133000F00112037CEF12007480D490013F12037D
:1013400073229001D8EFF09001D9EDF09001D9E02F
:10135000FFA8077401088002C333D8FCFF9001DAAC
:10136000EFF0C2AF9001D8E0FF74B32FF582E43400
:1013700001F583C083C082E0FF9001DAE0FEEF4E0A
:10138000FFD082D083EFF0D2AF22C2D5E830E70F92
:10139000B2D5E4C39BFBE49AFAE499F9E498F8EC3B
:1013A00030E717B2D51213C01201ABE4C39BFBE4C4
:1013B0009AFAE499F9E498F880031201AB30D50D5C
:1013C000E4C39FFFE49EFEE49DFDE49CFC229001AB
:1013D000CBE0FF7E00EF64014E602E120EB790014D
:1013E000C8EEF0A3EFF09001CAE0FFEF120417136C
:1013F000F900140201000014097D017F021213425A
:1014000080077D007F031213427D077F0412134281
:1014100022900200EFF0900200E0FF7E00D3EF94F4
:1014200000EE648094804012900200E0FF7E00C3D2
:10143000EF9409EE64809480400312174675D4003F
:10144000900200E0FFC374099FF5DCD2DE20DEFDD0
:1014500022D29053B3FE43B401A2AF920075C7AA43
:1014600075C75575910143B40175C7AA75C7557500
:101470009100A20092AF53DF3FC2DFD2DC20DCFD3F
:1014800075D10075D90975D40075DC06D2DF22C08C
:10149000E0C0F0C083C082C0D075D000C000C001E1
:1014A000C002C003C004C005C006C007C2CF1217E7
:1014B00027D007D006D005D004D003D002D001D069
:1014C00000D0D0D082D083D0F0D0E032900201E4BE
:1014D000F0900201E0FF7E00C3EF941FEE940050F5
:1014E00022900201E0FFEF25E025E02400F582E4F0
:1014F0003400F58312033600000000900201E0047E
:10150000F080CE90007CE4F0229001CAE4F09001DB
:10151000C8E4F0A3E4F09001CBE4F07D007F021278
:1015200013427D017F031213427D077F0412134291
:101530007FF61212597F0312141112173E22121055
:10154000EF9001F2EEF0A3EFF09001F2E0FEA3E0E5
:10155000FFEF24E7FFEE34FFFE1212AA9001F2E043
:10156000FEA3E0FF9001D2EEF0A3EFF09001D4E4EF
:10157000F0229001FEEFF09001D2E0FEA3E0FFEF39
:1015800024E7FFEE34FFFE9001FEE0FDED3395E031
:10159000FCC3EF9DFFEE9CFE1212AA9001FEE0FF3D
:1015A0009001D4EFF0229001F8EFF09001F9EDF006
:1015B0009001F8E0FF9001F8EFF09001F9E0FFEF03
:1015C00012041715CD0015D101000015D51216DC37
:1015D00022120CA92212174F227B017A00798390E4
:1015E0000143E4F0A3743CF07D001212F890007FF8
:1015F000120336000000009000BFE4F0A3E4F09076
:10160000007EE4F090007DE4F02275C7AA75C7550E
:1016100075FD5A75C7AA75C75575FDA5787FE4F69F
:10162000D8FD9000007FFF7E03E4F0A3DFFCDEFA2C
:101630007581200216999001C41203360000000043
:101640009001C41202E27B017A0079007800120155
:10165000059001C412032A80E72290016DE4F0A3F3
:10166000E4F0900173E4F0900171E4F0A3E4F090F1
:10167000016F74FFF0A374FFF0229001F4EFF0907B
:1016800001F5EDF09001F4E0FF9001F4EFF090012E
:10169000F5E0FF800012174622C2AF121720121782
:1016A000041214CC12165A1216CAD2AF120DB5E497
:1016B0007E007F00227B017A0179B3900143E4F040
:1016C000A37405F07D001212F82290015A1203361D
:1016D000000003E87D017F04120B60221214CC7F0E
:1016E000F61212597F031214112212002A12153E0B
:1016F000120FFC12107A229001CBE4F07D057F04DA
:10170000121342221216EA121451121717229001D4
:10171000ECE0FEA3E0FF22D29353B3F753B4F722D9
:101720001215D91216B52290007DE004F022900126
:10173000D4E0FF22C2CA539B7F2212172E2243DE1F
:10174000042253DEFB2280FE22C29322D293228007
:10175000FE22222222FF167A000000FF15A6FF09B2
:04176000FBFF120376
:00000001FF
