:100000000215F99001FCE4F09001FCE0FF7E00C3D2
:10001000EF9403EE64809480500FC2EFD2EE30EF85
:10002000FD9001FCE004F080DF222202147EBB017F
:100030000689828A83E0225002E722BBFE02E32285
:1000400089828A83E49322BB010CE58229F582E54B
:10005000833AF583E0225006E92582F8E622BBFECA
:1000600006E92582F8E222E58229F582E5833AF560
:1000700083E49322BB010689828A83F0225002F72F
:1000800022BBFE01F322F8BB010DE58229F582E5D2
:10009000833AF583E8F0225006E92582C8F622BBB0
:1000A000FE05E92582C8F222EF8DF0A4A8F0CF8CDE
:1000B000F0A428CE8DF0A42EFE22C5F0F8A3E028EF
:1000C000F0C5F0F8E582158270021583E038F02261
:1000D000A3F8E0C5F025F0F0E582158270021583E3
:1000E000E0C838F0E822BB010A89828A83F0E5F093
:1000F000A3F0225006F709A7F01922BBFE06F3E58C
:10010000F009F31922EF2BFFEE3AFEED39FDEC3842
:10011000FC22C3EF9BFFEE9AFEED99FDEC98FC22CA
:10012000E88FF0A4CC8BF0A42CFCE98EF0A42CFC7E
:100130008AF0EDA42CFCEA8EF0A4CDA8F08BF0A4FC
:100140002DCC3825F0FDE98FF0A42CCD35F0FCEB5B
:100150008EF0A4FEA9F0EB8FF0A4CFC5F02ECD3920
:10016000FEE43CFCEAA42DCE35F0FDE43CFC227517
:10017000F008758200EF2FFFEE33FECD33CDCC3388
:10018000CCC58233C5829BED9AEC99E58298400CF0
:10019000F582EE9BFEED9AFDEC99FC0FD5F0D6E4CE
:1001A000CEFBE4CDFAE4CCF9A88222B800C1B900B4
:1001B00059BA002DEC8BF084CFCECDFCE5F0CBF915
:1001C0007818EF2FFFEE33FEED33FDEC33FCEB330D
:1001D000FB10D703994004EB99FB0FD8E5E4F9FA3B
:1001E000227818EF2FFFEE33FEED33FDEC33FCC920
:1001F00033C910D7059BE99A4007EC9BFCE99AF9B3
:100200000FD8E0E4C9FAE4CCFB2275F010EF2FFF21
:10021000EE33FEED33FDCC33CCC833C810D7079B8B
:10022000EC9AE899400AED9BFDEC9AFCE899F80FEE
:10023000D5F0DAE4CDFBE4CCFAE4C8F922C3E49FBC
:10024000FFE49EFEE49DFDE49CFC22EB9FF5F0EABA
:100250009E42F0E99D42F0EC6480C864809845F0CD
:1002600022EB9FF5F0EA9E42F0E99D42F0E89C45C2
:10027000F022E8600FECC313FCED13FDEE13FEEF6C
:1002800013FFD8F122E8600FEFC333FFEE33FEED2A
:1002900033FDEC33FCD8F122BB010DE58229F58258
:1002A000E5833AF5830202E25007E92582F8020469
:1002B00070BBFE07E92582F802047CE58229F582FD
:1002C000E5833AF583020488BB010789828A8302A9
:1002D000032A5005E9F80204C2BBFE05E9F802044E
:1002E000CE22E0FCA3E0FDA3E0FEA3E0FF22E0F8C5
:1002F000A3E0F9A3E0FAA3E0FB22BB010DE582290C
:10030000F582E5833AF5830202EE5007E92582F88B
:10031000020498BBFE07E92582F80204A5E58229BC
:10032000F582E5833AF5830204B2ECF0A3EDF0A385
:10033000EEF0A3EFF022A8828583F0D083D0821262
:10034000034D12034D12034D12034DE473E493A3C6
:10035000C583C5F0C583C8C582C8F0A3C583C5F0F1
:10036000C583C8C582C822A42582F582E5F03583FD
:10037000F58322E0FBA3E0FAA3E0F922F8E0FBA377
:10038000A3E0F925F0F0E582158270021583E0FA0A
:1003900038F022EBF0A3EAF0A3E9F022E493FB7437
:1003A0000193FA740293F922BB010789828A8302BE
:1003B00003735005E9F80204DABBFE05E9F802040C
:1003C000EC89828A8302039CBB011A89828A83D0CA
:1003D000F0D0E0F8D0E0F9D0E0FAD0E0FBE8C0E0FF
:1003E000C0F00203935016E9F8D083D082D0E0F930
:1003F000D0E0FAD0E0FBC082C0830204E3BBFE166B
:10040000E9F8D083D082D0E0F9D0E0FAD0E0FBC0A8
:1004100082C0830204F522D083D082F8E493701264
:10042000740193700DA3A393F8740193F5828883EC
:10043000E4737402936860EFA3A3A380DF8A8389C7
:1004400082E473EC8EF0A4CCC5F0CCCDF8EFA4CE52
:10045000C5F02DFDE43CFCE8A42EC8C5F03DFDE44C
:100460003CFCEFA4FFE5F028FEE43DFDE43CFC226B
:10047000E6FC08E6FD08E6FE08E6FF22E2FC08E2EC
:10048000FD08E2FE08E2FF22E493FC740193FD7490
:100490000293FE740393FF22E6FB08E6F908E6FAEE
:1004A00008E6CBF822E2FB08E2F908E2FA08E2CB20
:1004B000F822E493F8740193F9740293FA740393A5
:1004C000FB22ECF608EDF608EEF608EFF622ECF269
:1004D00008EDF208EEF208EFF222E6FB08E6FA0871
:1004E000E6F922EBF608EAF608E9F622E2FB08E272
:1004F000FA08E2F922EBF208EAF208E9F2229000A7
:10050000DA1203939000DDEDF09000E31203360061
:100510000000009000E2E4F09000DDE0FF7E00C308
:10052000EF9403EE6480948050030207D49000E1BE
:100530007401F09000DDE0FFEF14FF9000E1E0FEB9
:10054000EEC39F40030206469000E7120336000008
:1005500000009000E71202E2C004C005C006C00718
:100560009000E1E0FF7E00EF24FFFFEE34FFFEEF9E
:100570007802C333CE33CED8F9FF9000DA1203737A
:100580008F828E831202FAD007D006D005D00412D3
:1005900001059000E712032A9000E71202E2C0046E
:1005A000C005C006C0079000DA1203739000E1E0B6
:1005B000FF75F004EFA4F58285F0831202FAD007EC
:1005C000D006D005D0041201059000E712032A904E
:1005D00000E71202E2C004C005C006C0079000E1B7
:1005E000E0FF7E00EF2401FFEE3400FEEF7802C34F
:1005F00033CE33CED8F9FF9000DA1203738F828E98
:10060000831202FAD007D006D005D004120105905B
:1006100000E712032A9000E31202E29000E71202C0
:10062000EEC312026140169000E71202E29000E36E
:1006300012032A9000E1E0FF9000E2EFF09000E169
:10064000E004F00205339000E2E0FF7E00EF24FFBB
:10065000FFEE34FFFEEF7802C333CE33CED8F9FF7E
:100660009000DA1203738F828E83120298C004C046
:1006700005C006C0079000DA1203739000E2E0FFA5
:1006800075F004EFA4F58285F0831202FAD007D04A
:1006900006D005D004D3120261505E9000E2E0FF64
:1006A0007E00EF2401FFEE3400FEEF7802C333CE6C
:1006B00033CED8F9FF9000DA1203738F828E831243
:1006C0000298C004C005C006C0079000DA12037388
:1006D0009000E2E0FF75F004EFA4F58285F083124C
:1006E00002FAD007D006D005D004C3120261400937
:1006F0009000E2E014F00207A99000E2E0FF7E0023
:10070000EF24FFFFEE34FFFEEF7802C333CE33CE8B
:10071000D8F9FF9000DA1203738F828E8312029849
:10072000C004C005C006C0079000DA120373900031
:10073000E2E0FF75F004EFA4F58285F0831202FA7F
:10074000D007D006D005D004C3120261405B9000F0
:10075000E2E0FF7E00EF2401FFEE3400FEEF7802BE
:10076000C333CE33CED8F9FF9000DA1203738F82F1
:100770008E83120298C004C005C006C0079000DA3C
:100780001203739000E2E0FF75F004EFA4F5828598
:10079000F0831202FAD007D006D005D004D312029B
:1007A0006150069000E2E004F09000DE120373EA6C
:1007B000494B70030208567B037A00790078009059
:1007C00000E31202E21201AB9000DE120373120288
:1007D000C80208569000E1E4F09000DDE0FF9000D0
:1007E000E1E0FEEEC39F50549000DA1203739000D4
:1007F000E1E0FF75F004EFA4F58285F08312029822
:100800009000E31202EED312026150289000DA1237
:1008100003739000E1E0FF75F004EFA4F58285F02A
:10082000831202989000E312032A9000E1E0FF9007
:1008300000E2EFF09000E1E004F0809D9000DE1215
:100840000373EA494B600F9000E31202E29000DE6E
:100850001203731202C89000E2E0FF22C2AF9000C0
:100860007DE0FF9001E2EFF0D2AF90007EE0FF90DC
:1008700001E2E0FEEE6F70030209FA90007EE0FFF5
:100880009001E2E0FEEED39F401090007EE0FF90EA
:1008900001E2E0FEC3EE9FFF801290007EE0FFC306
:1008A00074FF9FFF9001E2E0FEEF2EFF9001E3EF67
:1008B000F09001E2E0FF90007EEFF09001E3E0FFB6
:1008C0007E009000BFEE8FF01200BA9000BFE0FEF5
:1008D000A3E0FFC3EF94E8EE940340229000BF74BE
:1008E000FC75F0181200BA90007F1202E27B017AC8
:1008F000007900780012010590007F12032A900110
:10090000E1E4F09001E1E0FF7E00C3EF940AEE64C1
:1009100080948040030209FA9001E1E0FFEF75F056
:1009200006A42483F582E43400F5831202E2EC4D40
:100930004E4F70030209F19001E3E0FFE4FCFDFE7D
:100940009001E1E0FBEB75F006A42483F582E4342A
:1009500000F5831202EEC312026140269001E3E02B
:10096000FFAB07E4FAF9F89001E1E0FFEF75F0065C
:10097000A42483F582E43400F5831202E21201120A
:1009800080087F007E007D007C009001E1E0FBEBB1
:1009900075F006A42483F582E43400F58312032A5B
:1009A0009001E1E0FFEF75F006A42483F582E434C2
:1009B00000F5831202E27B007A0079007800C3120E
:1009C0000261702D9001E1E0FFEF75F006A424872D
:1009D000F582E43400F583E0FF9001E1E0FEEE757E
:1009E000F006A42488F582E43400F583E0FD1213B8
:1009F000319001E1E004F0020903229001FAEFF0E6
:100A00009001FBEDF09001FAE0FF9001FAEFF09019
:100A100001FBE0FFEF1204170A22000B3D0100006A
:100A20000B4B900173E0FF7E00C3EF9414EE6480E3
:100A30009480504F90016DE0FEA3E0FFEF4E602CDC
:100A400090016DE0FEA3E0FF7C007D0F120443A83F
:100A500004A905AA06AB079001C8E0FEA3E0FFE4E5
:100A6000FCFD120105780412027280089001C8E0B2
:100A7000FEA3E0FF90016DEEF0A3EFF0900173E0B4
:100A800004F02290016DE0FEA3E0FF7C007D0F12D8
:100A90000443A804A905AA06AB079001C8E0FEA379
:100AA000E0FFE4FCFD120105780412027290016D72
:100AB000EEF0A3EFF0900171E0FEA3E0FF90016D76
:100AC000E0FCA3E0FDD3ED9FEC9E401090016DE0B3
:100AD000FEA3E0FF900171EEF0A3EFF090016FE054
:100AE000FEA3E0FF90016DE0FCA3E0FDC3ED9FECF1
:100AF0009E501090016DE0FEA3E0FF90016FEEF0BC
:100B0000A3EFF090016DE0FEA3E0FFD3EF9496EE2B
:100B10009400400E9001CB7401F07D057F04121308
:100B200031229001CBE0FF7E00EF64024E601F9007
:100B300001CB7402F07D057F041213312290016D08
:100B4000E4F0A3E4F0900173E4F02212173E229047
:100B50000158EFF0900159EDF0900158E0FF7E0050
:100B6000C3EF9405EE648094805003D38001C340AA
:100B700003121625900159E0FF7E00C3EF9408EEA2
:100B8000648094805003D38001C340031216257FF4
:100B9000007E007D007C0090015A1202EEC312021A
:100BA000616003D38001C34003121625900158E011
:100BB000FF900159E0FD120F5C90015EEFF0900193
:100BC0005EE0FF7E00EF640A4E601D90015A120243
:100BD000E290015EE0FBEB75F006A42483F582E46D
:100BE0003400F58312032A2290015EE4F090015E46
:100BF000E0FF7E00C3EF940AEE648094804003021D
:100C00000C8190015EE0FFEF75F006A42483F5826D
:100C1000E43400F5831202E27B007A007900780068
:100C2000C3120261705290015A1202E290015EE01A
:100C3000FBEB75F006A42483F582E43400F58312FF
:100C4000032A900158E0FF90015EE0FEEE75F00689
:100C5000A42487F582E43400F583EFF0900159E095
:100C6000FF90015EE0FEEE75F006A42488F582E4B4
:100C70003400F583EFF0800990015EE004F0020B90
:100C8000ED90015EE0FF7E00EF640A4E6003D380CA
:100C900001C3400312162522121729900166EFF0B6
:100CA000900166E0FFEF240AFF900167EFF09001EA
:100CB00067E0FFEF25E025E02400F582E43400F54D
:100CC00083C083C0821202EE9001C8E0FEA3E0FF61
:100CD000E4FCFD120105D082D08312032A90007C2F
:100CE000E004F090007CE0FF7E00EF64964E60032D
:100CF000020DA390007CE4F0900166E0FFEF3395D5
:100D0000E0FEC3EF9414EE64809480500F9001666F
:100D1000E004F0900166E0FF121248227B017A00A5
:100D20007900C003C002C0017B017A01796990009B
:100D3000DE120393D001D002D0037D1F1204FE9077
:100D40000168EFF07FC87EAF7D007C0090016912E2
:100D500002EEC3120261503E7F707E177D007C0060
:100D60009001691202EED3120261402A900168E0FC
:100D7000FFEF24F6FF900166EFF0900166E0FF12AE
:100D800012489001CA7401F09001CB7402F07D0505
:100D90007F04121331229001CB7401F07D057F0492
:100DA0001213312212085C9001D7E4F09001D7E0D1
:100DB000FF7E00C3EF9405EE6480948050E6C2AFDE
:100DC0009001D7E0FF74B32FF582E43401F583E09E
:100DD000FF9001D5EFF0D2AF9001D5E0FFEF7003A7
:100DE000020E999001D6E4F09001D6E0FF7E00C398
:100DF000EF9408EE64809480502F9001D6E0FF7E3F
:100E0000007401A807088005C333CE33CED8F9FF9C
:100E10009001D5E0FD7C00EE5CFEEF5DFFEF4E70D3
:100E2000089001D6E004F080BF9001D6E0FFA8074B
:100E30007401088002C333D8FCFF9001D5EFF09015
:100E400001D5E0FFEFF4FF9001D5EFF0C2AF9001C4
:100E5000D7E0FF74B32FF582E43401F583C083C07B
:100E600082E0FF9001D5E0FEEF5EFFD082D083EFFD
:100E7000F0D2AF9001D7E0FF9001D6E0FD9001D70E
:100E8000E0FE75F003EE90174412036712039C898D
:100E9000828A83120441020DA49001D7E004F0027B
:100EA0000DAC020DA4227F08121199900152EEF0B0
:100EB000A3EFF07F05121199900150EEF0A3EFF02F
:100EC0001216FDE4FCFD90015412032A9001541205
:100ED00002EE900150E0FEA3E0FFE4FCFD120120D1
:100EE00090015412032A9001541202E27B037A000B
:100EF0007900780012012090015412032A900154C5
:100F00001202E2780212027290015412032A900136
:100F1000541202E2C004C005C006C007900152E0AE
:100F2000FEA3E0FFAB07AA06E4F9F8D007D006D08D
:100F300005D0041201AB90015412032A7FFF7EFFFB
:100F40007D007C009001541202EED3120261400534
:100F50007EFF7FFF229001541202E2229001DEEF19
:100F6000F09001DFEDF09001E0E4F09001E0E0FFAF
:100F70007E00C3EF940AEE6480948050689001E094
:100F8000E0FFEF75F006A42483F582E43400F583D6
:100F90001202E27B007A0079007800C312026150ED
:100FA0003C9001E0E0FFEF75F006A42487F582E4B1
:100FB0003400F583E0FF9001DEE0FEEFB5061E9001
:100FC00001E0E0FFEF75F006A42488F582E4340028
:100FD000F583E0FF9001DFE0FEEF6E60089001E036
:100FE000E004F080869001E0E0FF2212171DEF334D
:100FF00095E0FEFDFC7B407A9C7900780012012090
:10100000EF2440FFEE3466FEED3403FDEC3401FCCA
:1010100090019412032A7BE87A037900780090010A
:10102000941202E2121379C3E49FFFE49EFE900142
:1010300092EEF0A3EFF053C98F53C8FE43C980432B
:10104000C908900192E0FEA3E0FFEF54FFF5CA90BB
:101050000192E0FEA3E0FFEEFF7E008FCB75CC0097
:1010600075CD00439B80D2CA2275C7AA75C7554368
:101070009F0175A60C75A70075AF0475C7AA75C743
:101080005543A4019001EAE5AEF075A60D75A700E1
:1010900075AF0475C7AA75C75543A4019001EBE568
:1010A000AEF09001EBE0FFEF540FFF9001EBEFF09B
:1010B00075C7AA75C755539FFE9001EAE0FF7E00F1
:1010C000EF75F010A4FFAEF09001EBE0FD7C00EEB8
:1010D0004CFEEF4DFF9001ECEEF0A3EFF02275C750
:1010E000AA75C755439F0175A63075A70075AF0453
:1010F00075C7AA75C75543A4019001EEE5AEF0751A
:10110000A63175A70075C7AA75C75543A4019001FC
:10111000EFE5AEF075C7AA75C755539FFE9001EE77
:10112000E0FF7E00EF25E0FFEE33FE9001EFE0FDF3
:10113000ED5401FD7C00EE4CFEEF4DFF229001CB03
:10114000E0FFEF120417115300115701119502002F
:1011500000119812172D221217381217319001CA58
:10116000E0FF7E00EF4E70077D007F02121331908A
:1011700001CAE0FF7E00EF64014E70077D017F032E
:1011800012133190015A120336000013887D067F36
:1011900004120B4F2212173B229001FDEFF0900139
:1011A000FDE0FFEF12041711AE05000011C553E872
:1011B000F043E80543B11053B2EF75F60043F62053
:1011C00043E101800C43E80853E8F843E1011200D1
:1011D00003C2EFD2EE30EFFDAFC37E00EF75F0102B
:1011E000A4FFAEF0E5C2540FFD7C00EE4CFEEF4DC7
:1011F000FF229001F6EFF09001F7EDF09001F6E09C
:10120000FF9001F6EFF09001F7E0FFEF12041712E4
:101210002801123402123003122C04123805123C39
:1012200006124007000012441214F822121743223B
:10123000121742221217412212113D221216E622E3
:101240001213BD2212173E229001FFEFF09001FF12
:10125000E0FFEF3395E0FED3EF9414EE64809480CA
:1012600040089001FF7414F0801B9001FFE0FFEF35
:101270003395E0FEC3EF94F6EE6480947F500690C1
:1012800001FF74F6F01217239001FFE0FF121561C1
:10129000120FEB9001FFE0FF229001F0EEF0A3EFC0
:1012A000F09001F0E0FEA3E0FFEE5401FE9001F0AB
:1012B000EEF0A3EFF09001F0E0FEA3E0FFEEA2E776
:1012C00013FEEF13FF8F089001F0E0FEA3E0FFEFA5
:1012D0005401F50975C7AA75C75585088475C7AA4D
:1012E00075C7558509852290013F120393900142ED
:1012F000EDF090013F1203739001451203939001AA
:101300004374FF75F0FF1200D0AFF0FED3EF9400EE
:10131000EE94004015900142E0FF900145E475F025
:101320000112037CEF12007480D490013F1203730A
:10133000229001D8EFF09001D9EDF09001D9E0FFB3
:10134000A8077401088002C333D8FCFF9001DAEFCC
:10135000F0C2AF9001D8E0FF74B32FF582E43401FE
:10136000F583C083C082E0FF9001DAE0FEEF4EFF1C
:10137000D082D083EFF0D2AF22C2D5E830E70FB2EF
:10138000D5E4C39BFBE49AFAE499F9E498F8EC30CD
:10139000E717B2D51213AF1201ABE4C39BFBE49A7B
:1013A000FAE499F9E498F880031201AB30D50DE422
:1013B000C39FFFE49EFEE49DFDE49CFC229001CBD4
:1013C000E0FF7E00EF64014E602E120EA69001C871
:1013D000EEF0A3EFF09001CAE0FFEF12041713E85C
:1013E0000013F101000013F87D017F021213318018
:1013F000077D007F031213317D077F041213312212
:10140000900200EFF0900200E0FF7E00D3EF940026
:10141000EE648094804012900200E0FF7E00C3EFF3
:101420009409EE64809480400312173575D40090BF
:101430000200E0FFC374099FF5DCD2DE20DEFD224E
:10144000D29053B3FE43B401A2AF920075C7AA7500
:10145000C75575910143B40175C7AA75C7557591F4
:1014600000A20092AF53DF3FC2DFD2DC20DCFD756B
:10147000D10075D90975D40075DC06D2DF22C0E031
:10148000C0F0C083C082C0D075D000C000C001C011
:1014900002C003C004C005C006C007C2CF121716A1
:1014A000D007D006D005D004D003D002D001D000A0
:1014B000D0D0D082D083D0F0D0E032900201E4F0DE
:1014C000900201E0FF7E00C3EF941FEE94005022D3
:1014D000900201E0FFEF25E025E02400F582E434EE
:1014E00000F58312033600000000900201E004F0D2
:1014F00080CE90007CE4F0229001CAE4F09001C814
:10150000E4F0A3E4F09001CBE4F07D007F0212133D
:10151000317D017F031213317D077F041213317F68
:10152000F61212487F0312140012172D221210DE39
:101530009001F2EEF0A3EFF09001F2E0FEA3E0FFE5
:10154000EF24E7FFEE34FFFE1212999001F2E0FE65
:10155000A3E0FF9001D2EEF0A3EFF09001D4E4F00D
:10156000229001FEEFF09001D2E0FEA3E0FFEF2415
:10157000E7FFEE34FFFE9001FEE0FDED3395E0FC69
:10158000C3EF9DFFEE9CFE1212999001FEE0FF90CA
:1015900001D4EFF0229001F8EFF09001F9EDF09016
:1015A00001F8E0FF9001F8EFF09001F9E0FFEF1291
:1015B000041715BC0015C001000015C41216CB227B
:1015C000120C982212173E227B017A007983900137
:1015D00043E4F0A3743CF07D001212E790007F1208
:1015E0000336000000009000BFE4F0A3E4F0900098
:1015F0007EE4F090007DE4F02275C7AA75C75575AA
:10160000FD5A75C7AA75C75575FDA5787FE4F6D84C
:10161000FD9000007FFF7E03E4F0A3DFFCDEFA759F
:1016200081200216889001C4120336000000009049
:1016300001C41202E27B017A0079007800120105F0
:101640009001C412032A80E72290016DE4F0A3E424
:10165000F0900173E4F0900171E4F0A3E4F09001E4
:101660006F74FFF0A374FFF0229001F4EFF090018B
:10167000F5EDF09001F4E0FF9001F4EFF09001F54A
:10168000E0FF800012173522C2AF12170F1216F3B7
:101690001214BB1216491216B9D2AF120DA4E47E71
:1016A000007F00227B017A0179B3900143E4F0A32B
:1016B0007405F07D001212E72290015A12033600E1
:1016C0000003E87D017F04120B4F221214BB7FF64A
:1016D0001212487F031214002212002A12152D1232
:1016E0000FEB121069229001CBE4F07D057F04120C
:1016F0001331221216D9121440121706229001EC4F
:10170000E0FEA3E0FF22D29353B3F753B4F72212C3
:1017100015C81216A42290007DE004F0229001D496
:10172000E0FF22C2CA539B7F2212171D2243DE0410
:101730002253DEFB2280FE22C29322D2932280FE1D
:1017400022222222FF1669000000FF1595FF09FBE7
:03175000FF11F294
:00000001FF
