:100000000213639001FDE4F09001FDE0FF7E00C368
:10001000EF9403EE64809480500FC2EFD2EE30EF85
:10002000FD9001FDE004F080DF22220211E8BB0117
:100030000689828A83E0225002E722BBFE02E32285
:1000400089828A83E49322BB010CE58229F582E54B
:10005000833AF583E0225006E92582F8E622BBFECA
:1000600006E92582F8E222E58229F582E5833AF560
:1000700083E49322BB010689828A83F0225002F72F
:1000800022BBFE01F322F8BB010DE58229F582E5D2
:10009000833AF583E8F0225006E92582C8F622BBB0
:1000A000FE05E92582C8F222EF8DF0A4A8F0CF8CDE
:1000B000F0A428CE8DF0A42EFE22C5F0F8A3E028EF
:1000C000F0C5F0F8E582158270021583E038F02261
:1000D000A3F8E0C5F025F0F0E582158270021583E3
:1000E000E0C838F0E822BB010A89828A83F0E5F093
:1000F000A3F0225006F709A7F01922BBFE06F3E58C
:10010000F009F31922EF2BFFEE3AFEED39FDEC3842
:10011000FC22C3EF9BFFEE9AFEED99FDEC98FC22CA
:10012000E88FF0A4CC8BF0A42CFCE98EF0A42CFC7E
:100130008AF0EDA42CFCEA8EF0A4CDA8F08BF0A4FC
:100140002DCC3825F0FDE98FF0A42CCD35F0FCEB5B
:100150008EF0A4FEA9F0EB8FF0A4CFC5F02ECD3920
:10016000FEE43CFCEAA42DCE35F0FDE43CFC227517
:10017000F008758200EF2FFFEE33FECD33CDCC3388
:10018000CCC58233C5829BED9AEC99E58298400CF0
:10019000F582EE9BFEED9AFDEC99FC0FD5F0D6E4CE
:1001A000CEFBE4CDFAE4CCF9A88222B800C1B900B4
:1001B00059BA002DEC8BF084CFCECDFCE5F0CBF915
:1001C0007818EF2FFFEE33FEED33FDEC33FCEB330D
:1001D000FB10D703994004EB99FB0FD8E5E4F9FA3B
:1001E000227818EF2FFFEE33FEED33FDEC33FCC920
:1001F00033C910D7059BE99A4007EC9BFCE99AF9B3
:100200000FD8E0E4C9FAE4CCFB2275F010EF2FFF21
:10021000EE33FEED33FDCC33CCC833C810D7079B8B
:10022000EC9AE899400AED9BFDEC9AFCE899F80FEE
:10023000D5F0DAE4CDFBE4CCFAE4C8F922C3E49FBC
:10024000FFE49EFEE49DFDE49CFC22EB9FF5F0EABA
:100250009E42F0E99D42F0EC6480C864809845F0CD
:1002600022EB9FF5F0EA9E42F0E99D42F0E89C45C2
:10027000F022E8600FECC313FCED13FDEE13FEEF6C
:1002800013FFD8F122E8600FEFC333FFEE33FEED2A
:1002900033FDEC33FCD8F122BB010789828A83024B
:1002A00002FA5005E9F802046ABBFE05E9F8020407
:1002B0007622E0FCA3E0FDA3E0FEA3E0FF22E0F84D
:1002C000A3E0F9A3E0FAA3E0FB22BB010DE582293C
:1002D000F582E5833AF5830202BE5007E92582F8EC
:1002E000020440BBFE07E92582F802044DE582299D
:1002F000F582E5833AF58302045AECF0A3EDF0A30E
:10030000EEF0A3EFF022A8828583F0D083D0821292
:10031000031D12031D12031D12031DE473E493A3B6
:10032000C583C5F0C583C8C582C8F0A3C583C5F021
:10033000C583C8C582C822A42582F582E5F035832D
:10034000F58322E0FBA3E0FAA3E0F922F8E0FBA3A7
:10035000A3E0F925F0F0E582158270021583E0FA3A
:1003600038F022EBF0A3EAF0A3E9F022E493FB7467
:100370000193FA740293F922BB010789828A8302EE
:1003800003435005E9F8020482BBFE05E9F80204C4
:100390009489828A8302036CBB011A89828A83D082
:1003A000F0D0E0F8D0E0F9D0E0FAD0E0FBE8C0E02F
:1003B000C0F00203635016E9F8D083D082D0E0F990
:1003C000D0E0FAD0E0FBC082C08302048BBBFE16F3
:1003D000E9F8D083D082D0E0F9D0E0FAD0E0FBC0D9
:1003E00082C08302049D22D083D082F8E4937012ED
:1003F000740193700DA3A393F8740193F58288831D
:10040000E4737402936860EFA3A3A380DF8A8389F7
:1004100082E473EC8EF0A4CCC5F0CCCDF8EFA4CE82
:10042000C5F02DFDE43CFCE8A42EC8C5F03DFDE47C
:100430003CFCEFA4FFE5F028FEE43DFDE43CFC229B
:10044000E6FB08E6F908E6FA08E6CBF822E2FB0844
:10045000E2F908E2FA08E2CBF822E493F874019397
:10046000F9740293FA740393FB22ECF608EDF60894
:10047000EEF608EFF622ECF208EDF208EEF208EFE5
:10048000F222E6FB08E6FA08E6F922EBF608EAF6BD
:1004900008E9F622E2FB08E2FA08E2F922EBF208A8
:1004A000EAF208E9F222C2AF90007DE0FF9001E39A
:1004B000EFF0D2AF90007EE0FF9001E3E0FEEE6F40
:1004C000700302064490007EE0FF9001E3E0FEEE40
:1004D000D39F401090007EE0FF9001E3E0FEC3EE6A
:1004E0009FFF801290007EE0FFC374FF9FFF90018A
:1004F000E3E0FEEF2EFF9001E4EFF09001E3E0FF78
:1005000090007EEFF09001E4E0FF7E009000BFEEEF
:100510008FF01200BA9000BFE0FEA3E0FFC3EF949B
:10052000E8EE940340229000BF74FC75F0181200AE
:10053000BA90007F1202B27B017A00790078001233
:10054000010590007F1202FA9001E2E4F09001E2CE
:10055000E0FF7E00C3EF940AEE64809480400302C3
:1005600006449001E2E0FFEF75F006A42483F582D3
:10057000E43400F5831202B2EC4D4E4F70030206D4
:100580003B9001E4E0FFE4FCFDFE9001E2E0FBEBC8
:1005900075F006A42483F582E43400F5831202BECC
:1005A000C312026140269001E4E0FFAB07E4FAF9D0
:1005B000F89001E2E0FFEF75F006A42483F582E4F1
:1005C0003400F5831202B212011280087F007E000F
:1005D0007D007C009001E2E0FBEB75F006A4248333
:1005E000F582E43400F5831202FA9001E2E0FFEFB5
:1005F00075F006A42483F582E43400F5831202B278
:100600007B007A0079007800C3120261702D90019E
:10061000E2E0FFEF75F006A42487F582E43400F5EC
:1006200083E0FF9001E2E0FEEE75F006A42488F579
:1006300082E43400F583E0FD12109B9001E2E004B7
:10064000F002054D229001FBEFF09001FCEDF090DF
:1006500001FBE0FF9001FBEFF09001FCE0FFEF12E7
:1006600003E7066C00079801000007A6900174E0FC
:10067000FF7E00C3EF9414EE64809480504F90018D
:100680006EE0FEA3E0FFEF4E602C90016EE0FEA353
:10069000E0FF7C007D0F120413A804A905AA06AB95
:1006A000079001C9E0FEA3E0FFE4FCFD120105781C
:1006B0000412027280089001C9E0FEA3E0FF9001DD
:1006C0006EEEF0A3EFF0900174E004F02290016E62
:1006D000E0FEA3E0FF7C007D3F120413A804A905FF
:1006E000AA06AB079001C9E0FEA3E0FFE4FCFD12FF
:1006F0000105780612027290016EEEF0A3EFF09001
:100700000172E0FEA3E0FF90016EE0FCA3E0FDD3E8
:10071000ED9FEC9E401090016EE0FEA3E0FF900183
:1007200072EEF0A3EFF0900170E0FEA3E0FF900105
:100730006EE0FCA3E0FDC3ED9FEC9E501090016EB7
:10074000E0FEA3E0FF900170EEF0A3EFF090016EE9
:10075000E0FEA3E0FFC3EF9432EE9400401190015D
:100760006EE0FEA3E0FFD3EF945EEE9401400E90A6
:1007700001CC7401F07D057F0412109B229001CC06
:10078000E0FF7E00EF64024E601F9001CC7402F027
:100790007D057F0412109B2290016EE4F0A3E4F02B
:1007A000900174E4F02212149E22900159EFF0900F
:1007B000015AEDF0900159E0FF7E00C3EF9405EE81
:1007C000648094805003D38001C3400312138F9040
:1007D000015AE0FF7E00C3EF9408EE6480948050DD
:1007E00003D38001C3400312138F7F007E007D007E
:1007F0007C0090015B1202BEC31202616003D380D1
:1008000001C3400312138F900159E0FF90015AE099
:10081000FD120CC690015FEFF090015FE0FF7E00DB
:10082000EF640A4E601D90015B1202B290015FE01E
:10083000FBEB75F006A42483F582E43400F5831203
:1008400002FA2290015FE4F090015FE0FF7E00C3B6
:10085000EF940AEE6480948040030208DC90015F0C
:10086000E0FFEF75F006A42483F582E43400F583FD
:100870001202B27B007A0079007800C31202617024
:100880005290015B1202B290015FE0FBEB75F00643
:10089000A42483F582E43400F5831202FA9001590E
:1008A000E0FF90015FE0FEEE75F006A42487F5827C
:1008B000E43400F583EFF090015AE0FF90015FE02F
:1008C000FEEE75F006A42488F582E43400F583EF8B
:1008D000F0800990015FE004F002084890015FE0B9
:1008E000FF7E00EF640A4E6003D38001C340031211
:1008F000138F22121489900167EFF0900167E0FFD7
:10090000EF240AFF900168EFF0900168E0FFEF2507
:10091000E025E02400F582E43400F583C083C08242
:100920001202BE9001C9E0FEA3E0FFE4FCFD12014B
:1009300005D082D0831202FA90007CE004F090008F
:100940007CE0FF7E00EF64964E6003020A03900095
:100950007CE4F0900167E0FFEF3395E0FEC3EF9495
:1009600014EE64809480500F900167E004F09001D1
:1009700067E0FF120FB2227B017A007900C003C04A
:1009800002C0017B017A01796A9000DE120363D014
:1009900001D002D0037D1F120A04900169EFF07F9D
:1009A000C87EAF7D007C0090016A1202BEC31202B5
:1009B0006150437F987E3A7D007C0090016A12026C
:1009C000BED3120261402F900169E0FFEF24F1FFD6
:1009D000900167EFF0900167E0FF120FB27F051200
:1009E000116A9001CB7401F09001CC7402F07D0586
:1009F0007F0412109B229001CC7401F07D057F04CE
:100A000012109B229000DA1203639000DDEDF0904B
:100A100000E4120306000000009000E3E4F0900000
:100A2000E17401F09000DDE0FFEF14FF9000E1E0E1
:100A3000FEEEC39F4003020AE39000E812030600A3
:100A40000000009000E1E0FFEF14FF9000E2EFF003
:100A50009000E1E0FF7E00EF2401FFEE3400FE9005
:100A600000E2E0FD7C00D3ED9FEE6480F8EC648052
:100A700098503F9000E81202B2C004C005C006C002
:100A8000079000DA1203439000E2E0FF75F004EFF4
:100A9000A4F58285F0831202CAD007D006D005D013
:100AA000041201059000E81202FA9000E2E004F05E
:100AB000809E9000E41202B29000E81202BEC312BF
:100AC000026140169000E81202B29000E41202FAAD
:100AD0009000E1E0FF9000E3EFF09000E1E004F02F
:100AE000020A249000DE120343EA494B601A7B039A
:100AF0007A00790078009000E41202B21201AB9003
:100B000000DE1203431202989000E3E0FF22120479
:100B1000A69001D8E4F09001D8E0FF7E00C3EF94E6
:100B200005EE6480948050E6C2AF9001D8E0FF7477
:100B3000B42FF582E43401F583E0FF9001D6EFF0A5
:100B4000D2AF9001D6E0FFEF7003020C039001D703
:100B5000E4F09001D7E0FF7E00C3EF9408EE6480DC
:100B60009480502F9001D7E0FF7E007401A8070801
:100B70008005C333CE33CED8F9FF9001D6E0FD7C9B
:100B800000EE5CFEEF5DFFEF4E70089001D7E004D1
:100B9000F080BF9001D7E0FFA8077401088002C36E
:100BA00033D8FCFF9001D6EFF09001D6E0FFEFF4D0
:100BB000FF9001D6EFF0C2AF9001D8E0FF74B42FE0
:100BC000F582E43401F583C083C082E0FF9001D652
:100BD000E0FEEF5EFFD082D083EFF0D2AF9001D87D
:100BE000E0FF9001D7E0FD9001D8E0FE75F003EE44
:100BF0009014A412033712036C89828A83120411A1
:100C0000020B0E9001D8E004F0020B16020B0E222C
:100C10007F08120F03900153EEF0A3EFF07F05124F
:100C20000F03900151EEF0A3EFF0121455E4FCFD18
:100C30009001551202FA9001551202BE900151E046
:100C4000FEA3E0FFE4FCFD1201209001551202FA20
:100C50009001551202B27B037A00790078001201EC
:100C6000209001551202FA9001551202B278021238
:100C700002729001551202FA9001551202B2C0049C
:100C8000C005C006C007900153E0FEA3E0FFAB071C
:100C9000AA06E4F9F8D007D006D005D0041201ABBB
:100CA0009001551202FA7FFF7EFF7D007C009001CB
:100CB000551202BED312026140057EFF7FFF2290D3
:100CC00001551202B2229001DFEFF09001E0EDF049
:100CD0009001E1E4F09001E1E0FF7E00C3EF940AAF
:100CE000EE6480948050689001E1E0FFEF75F006BB
:100CF000A42483F582E43400F5831202B27B007AE7
:100D00000079007800C3120261503C9001E1E0FFDD
:100D1000EF75F006A42487F582E43400F583E0FF44
:100D20009001DFE0FEEFB5061E9001E1E0FFEF75F8
:100D3000F006A42488F582E43400F583E0FF9001F6
:100D4000E0E0FEEF6E60089001E1E004F080869044
:100D500001E1E0FF2212147DEF3395E0FEFDFC7B04
:100D6000407A9C79007800120120EF2440FFEE3495
:100D700066FEED3403FDEC3401FC9001951202FA9D
:100D80007BE87A03790078009001951202B2121084
:100D9000E3C3E49FFFE49EFE900193EEF0A3EFF027
:100DA00053C98F53C8FE43C98043C908900193E0DB
:100DB000FEA3E0FFEF54FFF5CA900193E0FEA3E02D
:100DC000FFEEFF7E008FCB75CC0075CD00439B807E
:100DD000D2CA2275C7AA75C755439F0175A60C755F
:100DE000A70075AF0475C7AA75C75543A401900144
:100DF000EBE5AEF075A60D75A70075AF0475C7AA33
:100E000075C75543A4019001ECE5AEF09001ECE00C
:100E1000FFEF540FFF9001ECEFF075C7AA75C755AF
:100E2000539FFE9001EBE0FF7E00EF75F010A4FFF2
:100E3000AEF09001ECE0FD7C00EE4CFEEF4DFF903B
:100E400001EDEEF0A3EFF02275C7AA75C755439FD9
:100E50000175A63075A70075AF0475C7AA75C7558B
:100E600043A4019001EFE5AEF075A63175A70075BA
:100E7000C7AA75C75543A4019001F0E5AEF075C748
:100E8000AA75C755539FFE9001EFE0FF7E00EF2546
:100E9000E0FFEE33FE9001F0E0FDED5401FD7C003B
:100EA000EE4CFEEF4DFF229001CCE0FFEF1203E786
:100EB0000EBD000EC1010EFF0200000F0212148DC4
:100EC000221214981214919001CBE0FF7E00EF4E95
:100ED00070077D007F0212109B9001CBE0FF7E0027
:100EE000EF64014E70077D017F0312109B90015B40
:100EF000120306000013887D067F041207AA22123F
:100F0000149B229001FEEFF09001FEE0FFEF120330
:100F1000E70F180500000F2F53E8F043E80543B131
:100F20001053B2EF75F60043F62043E101800C4305
:100F3000E80853E8F843E101120003C2EFD2EE30B3
:100F4000EFFDAFC37E00EF75F010A4FFAEF0E5C279
:100F5000540FFD7C00EE4CFEEF4DFF229001F7EFA9
:100F6000F09001F8EDF09001F7E0FF9001F7EFF05D
:100F70009001F8E0FFEF1203E70F92010F9E020FBE
:100F80009A030F96040FA2050FA6060FAA070000EA
:100F90000FAE121262221214A3221214A2221214F1
:100FA000A122120EA72212143E221211272212147D
:100FB0009E22900200EFF0900200E0FFEF3395E0F8
:100FC000FED3EF9414EE6480948040089002007485
:100FD00014F0801B900200E0FFEF3395E0FEC3EFBA
:100FE00094F6EE6480947F500690020074F6F0123E
:100FF0001483900200E0FF1212CB120D55900200F4
:10100000E0FF229001F1EEF0A3EFF09001F1E0FE9D
:10101000A3E0FFEE5401FE9001F1EEF0A3EFF0909B
:1010200001F1E0FEA3E0FFEEA2E713FEEF13FF8F56
:10103000089001F1E0FEA3E0FFEF5401F50975C748
:10104000AA75C75585088475C7AA75C755850985CA
:1010500022900140120363900143EDF09001401291
:10106000034390014612036390014474FF75F0FF3F
:101070001200D0AFF0FED3EF9400EE940040159034
:101080000143E0FF900146E475F00112034CEF12BA
:10109000007480D4900140120343229001D9EFF0F4
:1010A0009001DAEDF09001DAE0FFA8077401088002
:1010B00002C333D8FCFF9001DBEFF0C2AF9001D93F
:1010C000E0FF74B42FF582E43401F583C083C0825D
:1010D000E0FF9001DBE0FEEF4EFFD082D083EFF027
:1010E000D2AF22C2D5E830E70FB2D5E4C39BFBE410
:1010F0009AFAE499F9E498F8EC30E717B2D51211AE
:10110000191201ABE4C39BFBE49AFAE499F9E49861
:10111000F880031201AB30D50DE4C39FFFE49EFEBF
:10112000E49DFDE49CFC229001CCE0FF7E00EF6496
:10113000014E602E120C109001C9EEF0A3EFF0905A
:1011400001CBE0FFEF1203E7115200115B01000039
:1011500011627D017F0212109B80077D007F0312C8
:10116000109B7D077F0412109B22900201EFF090EC
:101170000201E0FF7E00D3EF9400EE648094804093
:1011800012900201E0FF7E00C3EF9409EE648094A8
:1011900080400312149575D400900201E0FFC374DF
:1011A000099FF5DCD2DE20DEFD22D29053B3FE4350
:1011B000B401A2AF920075C7AA75C75575910143D6
:1011C000B40175C7AA75C755759100A20092AF53B7
:1011D000DF3FC2DFD2DC20DCFD75D10075D9097597
:1011E000D40075DC06D2DF22C0E0C0F0C083C0822C
:1011F000C0D075D000C000C001C002C003C004C090
:1012000005C006C007C2CF121476D007D006D0059D
:10121000D004D003D002D001D000D0D0D082D0836F
:10122000D0F0D0E032900202E4F0900202E0FF7EC3
:1012300000C3EF941FEE94005022900202E0FFEFF3
:1012400025E025E02400F582E43400F5831203064E
:1012500000000000900202E004F080CE90007CE4E8
:10126000F0229001CBE4F09001C9E4F0A3E4F09007
:1012700001CCE4F07D007F0212109B7D017F031200
:10128000109B7D077F0412109B7FF6120FB27F0325
:1012900012116A12148D22120E489001F3EEF0A37F
:1012A000EFF09001F3E0FEA3E0FFEF24E7FFEE3460
:1012B000FFFE1210039001F3E0FEA3E0FF9001D3C4
:1012C000EEF0A3EFF09001D5E4F0229001FFEFF0F3
:1012D0009001D3E0FEA3E0FFEF24E7FFEE34FFFE32
:1012E0009001FFE0FDED3395E0FCC3EF9DFFEE9C28
:1012F000FE1210039001FFE0FF9001D5EFF0229065
:1013000001F9EFF09001FAEDF09001F9E0FF9001A2
:10131000F9EFF09001FAE0FFEF1203E71326001354
:101320002A010000132E121423221208F322121491
:101330009E227B017A007983900144E4F0A3743CFF
:10134000F07D0012105190007F1203060000000093
:101350009000BFE4F0A3E4F090007EE4F090007D04
:10136000E4F02275C7AA75C75575FD5A75C7AA75E9
:10137000C75575FDA5787FE4F6D8FD9000007FFF86
:101380007E03E4F0A3DFFCDEFA7581200213F29005
:1013900001C5120306000000009001C51202B27BD5
:1013A000017A00790078001201059001C51202FA55
:1013B00080E72290016EE4F0A3E4F0900174E4F081
:1013C000900172E4F0A3E4F090017074FFF0A37454
:1013D000FFF0229001F5EFF09001F6EDF09001F5AD
:1013E000E0FF9001F5EFF09001F6E0FF80001214AD
:1013F0009522C2AF12146F12144B1212251213B39E
:10140000121467D2AF120B0EE47E007F00227B0124
:101410007A0179B4900144E4F0A37405F07D0012E0
:101420001051221212257FF6120FB27F0312116A99
:101430002212002A121297120D55120DD32290017A
:10144000CCE4F07D057F0412109B2212143112119E
:10145000AA12145E229001EDE0FEA3E0FF22D293D7
:1014600053B3F753B4F7227D017F0412109B22126D
:10147000133212140E2290007DE004F0229001D568
:10148000E0FF22C2CA539B7F2212147D2243DE0456
:101490002253DEFB2280FE22C29322D2932280FEC0
:1014A00022222222FF13D3000000FF12FFFF064575
:0314B000FF0F5CCF
:00000001FF
